:100000000C942A000C94D8020C9483060C940103DF
:100010000C943C000C943C000C943C000C943C0070
:100020000C943C000C94EF060C943C000C943C00A7
:100030000C943C000C94D4050C9426060C941C06DD
:100040000C943C000C943C000C943C000C943C0040
:100050000C943C0011241FBECFE5D4E0DEBFCDBF21
:1000600010E0A0E6B0E001C01D92A238B107E1F7B0
:100070000E945A070C94C5070C940000683008F0E1
:10008000C2C04423D1F58130A1F0813030F08230FC
:10009000E1F0833009F0B7C024C02AB381E090E0DA
:1000A00002C0880F991F6A95E2F7809582238ABB68
:1000B000A8C027B381E090E002C0880F991F6A951D
:1000C000E2F78095822387BB9CC024B381E090E057
:1000D00002C0880F991F6A95E2F78095822384BB3E
:1000E00090C021B381E090E002C0880F991F6A950B
:1000F000E2F78095822381BB84C04130B1F5813025
:1001000099F0813030F08230D1F0833009F07BC03B
:1001100021C02AB381E090E002C0880F991F6A9540
:10012000E2F7282B2ABB6DC027B381E090E002C024
:10013000880F991F6A95E2F7282B27BB62C024B36A
:1001400081E090E002C0880F991F6A95E2F7282BA2
:1001500024BB57C021B381E090E002C0880F991FF3
:100160006A95E2F7282B21BB4CC0423009F04BC006
:100170008130C1F0813030F0823021F1833009F0DC
:1001800042C030C03AB381E090E002C0880F991FAE
:100190006A95E2F7282F209523232ABB2BB3822BC5
:1001A0008BBB2FC037B381E090E002C0880F991F4E
:1001B0006A95E2F7282F2095232327BB28B3822BAB
:1001C00088BB1FC034B381E090E002C0880F991F44
:1001D0006A95E2F7282F2095232324BB25B3822B91
:1001E00085BB0FC031B381E090E002C0880F991F3A
:1001F0006A95E2F7282F2095232321BB22B3822B77
:1002000082BB80E0089581E00895813051F0813013
:1002100030F0823041F0833049F081E008956ABBCC
:1002200003C067BB01C064BB80E0089561BB80E090
:100230000895683008F074C04423D1F58130A1F0EE
:10024000813030F08230E1F0833009F069C024C0A1
:100250002BB381E090E002C0880F991F6A95E2F706
:10026000809582238BBB5AC028B381E090E002C006
:10027000880F991F6A95E2F78095822388BB4EC04C
:1002800025B381E090E002C0880F991F6A95E2F7DC
:100290008095822385BB42C022B381E090E002C0FA
:1002A000880F991F6A95E2F78095822382BB36C03A
:1002B0004130B1F5813091F0813028F08230C9F0C1
:1002C000833071F521C02BB381E090E002C0880F2C
:1002D000991F6A95E2F7282B2BBB20C028B381E039
:1002E00090E002C0880F991F6A95E2F7282B28BB7F
:1002F00015C025B381E090E002C0880F991F6A9570
:10030000E2F7282B25BB0AC022B381E090E002C0AF
:10031000880F991F6A95E2F7282B22BB80E0089589
:1003200081E00895813051F0813030F0823041F029
:10033000833049F081E008956BBB03C068BB01C006
:1003400065BB80E0089562BB80E00895813099F03C
:10035000813030F08230D1F0833021F181E0089596
:100360002BB381E090E002C0880F991F6A95E2F7F5
:1003700028272BBB15C028B381E090E002C0880F6E
:10038000991F6A95E2F7282728BB0AC025B381E0A8
:1003900090E002C0880F991F6A95E2F7282725BBD5
:1003A00080E0089522B381E090E002C0880F991F99
:1003B0006A95E2F7282722BB80E00895FA014115EB
:1003C0005105E1F06830D0F4813049F0813028F0F7
:1003D000823039F0833091F406C089B305C086B30A
:1003E00003C083B301C080B390E002C095958795A8
:1003F0006A95E2F78170808380E0089581E0089536
:10040000FB016115710599F0813049F0813028F0C8
:10041000823039F0833059F406C089B305C086B301
:1004200003C083B301C080B3808380E0089581E07E
:10043000089585B7816085BF85B78D7F85BF8BB7F0
:1004400080648BBF089585B7846085BF85B7877F3B
:1004500085BF8BB780688BBF089584B7806484BFE5
:100460008BB78F7D8BBF0895823071F0833018F485
:10047000813029F406C0833069F0843099F081E03E
:10048000089585B78E7F02C085B7816085BF85B727
:100490008D7F05C085B78E7F85BF85B7826085BF9C
:1004A00080E0089585B7816085BF85B7826085BF8C
:1004B00080E00895823071F0833018F4813029F49F
:1004C00006C0833069F0843099F081E0089585B7E3
:1004D0008B7F02C085B7846085BF85B7877F05C0E5
:1004E00085B78B7F85BF85B7886085BF80E008951D
:1004F00085B7846085BF85B7886085BF80E0089533
:10050000833021F0843039F081E0089584B78F7B07
:1005100084BF80E0089584B7806484BF80E008953C
:10052000813049F0813020F0823051F081E008952F
:100530008BB7806402C08BB780688BBF80E0089562
:100540008BB780628BBF80E00895813049F08130A5
:1005500020F0823051F081E008958BB78F7B02C08C
:100560008BB78F778BBF80E008958BB78F7D8BBF64
:1005700080E00895009711F482E00895909361005F
:100580008093600080E00895009711F482E0089560
:10059000909363008093620080E00895009711F4C7
:1005A00082E00895909365008093640080E0089550
:1005B0001F920F920FB60F9211242F933F934F93D8
:1005C0005F936F937F938F939F93AF93BF93EF93BB
:1005D000FF93E0916000F0916100309709F0099578
:1005E000FF91EF91BF91AF919F918F917F916F910B
:1005F0005F914F913F912F910F900FBE0F901F90E1
:1006000018951F920F920FB60F9211242F933F93BC
:100610004F935F936F937F938F939F93AF93BF930A
:10062000EF93FF93E0916400F0916500309709F03B
:100630000995FF91EF91BF91AF919F918F917F911C
:100640006F915F914F913F912F910F900FBE0F903F
:100650001F9018958FB780688FBF08958FB78F77D9
:100660008FBF08952F923F924F925F926F927F9229
:100670008F929F92AF92BF92CF92DF92EF92FF92B2
:100680000F931F93DF93CF93CDB7DEB71B012C01E0
:1006900039014A01A60195016D897E898F89988D5E
:1006A00062197309840995092E193F09400B510BF2
:1006B0000E9469076218730884089508A4019301D1
:1006C0000E94AA0759016A01AE0CBF1CC01ED11EB0
:1006D000B501C601CF91DF911F910F91FF90EF906F
:1006E000DF90CF90BF90AF909F908F907F906F9052
:1006F0005F904F903F902F900895AF92BF92CF920E
:10070000DF92EF92FF920F931F9300D000D090E002
:10071000A0E0B0E0EDB7FEB781839283A383B483FA
:1007200060E070E080E090E024EB30E040E050E0FA
:10073000FCE1EF2EF2E0FF2E012D112DE4E0AE2EB4
:10074000E6E0BE2EC12CD12C0E94320379BD68BDDB
:100750000F900F900F900F901F910F91FF90EF90BF
:10076000DF90CF90BF90AF900895AF92BF92CF929D
:10077000DF92EF92FF920F931F9300D000D090E092
:10078000A0E0B0E0EDB7FEB781839283A383B4838A
:1007900060E070E080E090E024EB30E040E050E08A
:1007A000BCE1EB2EB2E0FB2E012D112DA4E0AA2E10
:1007B000A6E0BA2EC12CD12C0E943203DC01CB0161
:1007C0000F900F900F900F900E944A041F910F916D
:1007D000FF90EF90DF90CF90BF90AF90089583E0AF
:1007E00064E041E00E943E0083E065E041E00E9459
:1007F0003E000E9424048FE19EE497BD86BD0895CB
:1008000083B7806483BF83B7886083BF83B7806208
:1008100083BF83B78F7E83BF80E48CBF83B78E7F17
:1008200083BF83B7826083BF83B78B7F83BF089505
:100830008CBF0895009711F482E0089590936900A9
:100840008093680080E008958FB580688FBD8FB574
:100850008F7B8FBD8FB58E7F8FBD8FB58D7F8FBD09
:100860008EB588608EBD8EB580618EBD8EB58E7F53
:100870008EBD8EB582608EBD8EB58B7F8EBD089588
:100880009DBD8CBD08952CB53DB5C901089597BD9A
:1008900086BD08959BBD8ABD089599BD88BD089504
:1008A0008EB580648EBD89B7806289BF089581301E
:1008B00029F48EB580648EBD80E00895882311F000
:1008C00081E008958EB58F7B8EBD80E0089589B755
:1008D000806289BF089589B78F7D89BF089526B545
:1008E00037B5C9010895009711F482E008959093F7
:1008F00067008093660080E008955D9BFECF8CB911
:10090000089520E030E040E050E004C02F5F3F4F0A
:100910004F4F5F4F5D9909C0203593EC390790E048
:10092000490790E0590791F708C02055334C4040E3
:10093000504019F08CB980E0089581E00895CF937C
:10094000DF93009711F482E007C0EC0102C00E941F
:10095000810489918823D9F7DF91CF910895982F49
:1009600080916A00882311F081E008956115710576
:1009700011F482E0089581E080936A00109275007E
:100980009093740070936C0060936B00559A80E0B4
:1009900008959C010097E9F061157105D1F08091EF
:1009A0006A00882321F481E080936A0010C081E00E
:1009B00080936A008093750030936E0020936D00E1
:1009C00070936C0060936B0010927600559A80E0F3
:1009D000089582E008955F9BFECF8CB1089580E07A
:1009E00090E0A0E0B0E003C00196A11DB11D5F99A9
:1009F00009C0803523EC920720E0A20720E0B2076F
:100A000099F707C08055934CA040B04011F08CB1CD
:100A1000089581E008959C0180916A00882311F077
:100A200081E008956115710599F02115310581F076
:100A300081E080936A0010927500309370002093DB
:100A40006F0070936C0060936B00549A80E008957F
:100A500082E008950F931F93CF93DF93062F0097A3
:100A600049F0EC0110E004C00E94EF0489931F5F7D
:100A70001017D0F382E0DF91CF911F910F9108956D
:100A80009C0180916A00882311F081E0089541154E
:100A90005105A9F02115310591F081E080936A009C
:100AA00080937500309372002093710060937700FB
:100AB00050936C0040936B00549A80E0089582E05C
:100AC00008956F927F928F929F92AF92BF92CF9232
:100AD000DF92EF92FF920F931F933B014C01611540
:100AE00071058105910551F45D9BFECF80E38CB9C2
:100AF00091E0A92EB12CC12CD12C43C081E0A82EAD
:100B0000B12CC12CD12CC601B5012AE030E040E067
:100B100050E00E9469077B018C01C401B3010E946F
:100B200088075B016C01AE0CBF1CC01ED11EC40146
:100B3000B3012AE030E040E050E00E948807C9019C
:100B4000DA013C014D016114710481049104D9F66C
:100B500018C05D9BFECFC601B5012AE030E040E041
:100B600050E00E948807605D6CB9C601B5012AE0BB
:100B700030E040E050E00E948807C901DA015C01E2
:100B80006D0181E0A816B104C104D10411F71F91D1
:100B90000F91FF90EF90DF90CF90BF90AF909F901C
:100BA0008F907F906F9008951F920F920FB60F92C3
:100BB00011242F933F934F935F936F937F938F9362
:100BC0009F93AF93BF93EF93FF938091750088231A
:100BD00039F48CB1E0916F00F0917000808313C004
:100BE0008130C9F4909173008CB1E0917100F09163
:100BF0007200E90FF11D80839F5F909373008091D5
:100C00007700981741F410926A00E0916B00F09120
:100C10006C0009955498FF91EF91BF91AF919F910E
:100C20008F917F916F915F914F913F912F910F9095
:100C30000FBE0F901F9018951F920F920FB60F9234
:100C400011240F900FBE0F901F9018951F920F92B6
:100C50000FB60F9211242F933F934F935F936F938F
:100C60007F938F939F93AF93BF93EF93FF93809165
:100C70007500882321F4809174008CB915C08130EF
:100C8000D9F4A0916D00B0916E0080917600FD01C5
:100C9000E80FF11D90819CB98F5F80937600A80FBB
:100CA000B11D8C91882341F410926A00E0916B0091
:100CB000F0916C0009955598FF91EF91BF91AF911C
:100CC0009F918F917F916F915F914F913F912F9164
:100CD0000F900FBE0F901F90189583E060E040E0EA
:100CE0000E943E0083E061E041E00E943E00529895
:100CF000599A85EC89B98EEB80BD80B5886080BD3E
:100D0000549A539A08951F920F920FB60F9211247E
:100D10002F933F934F935F936F937F938F939F9303
:100D2000AF93BF93EF93FF9390917800913009F0C8
:100D300045C080917900882361F412BE90937900B8
:100D400010927A0010927B0010927C0010927D002D
:100D500035C022B760917A0070917B0080917C0051
:100D600090917D00982F872F762F6627620F711D37
:100D7000811D911D22ED31E040E050E00E94880786
:100D800020937E0030937F00409380005093810039
:100D900080E991E028EC30E0F9013197F1F7019713
:100DA000D9F712BE1092780010927A0010927B0050
:100DB00010927C0010927D0010927900FF91EF91CB
:100DC000BF91AF919F918F917F916F915F914F9163
:100DD0003F912F910F900FBE0F901F9018951F926B
:100DE0000F920FB60F9211242F938F939F93AF936F
:100DF000BF9380917A0090917B00A0917C00B0918C
:100E00007D000196A11DB11D80937A0090937B0017
:100E1000A0937C00B0937D0087529240A040B040E8
:100E200060F0109278001092790010927A0010927F
:100E30007B0010927C0010927D00BF91AF919F913A
:100E40008F912F910F900FBE0F901F90189580914A
:100E500078008823D1F482E060E041E00E9419012B
:100E600088E28A95F1F782E060E040E00E94190193
:100E700081E08093780060917E0070917F00809186
:100E80008000909181000E94610508950E940004F5
:100E900083E063E040E00E943E0083E063E041E0E5
:100EA0000E94190182E060E041E00E943E000E9441
:100EB000230208950E942A030E946D060E94EF03F8
:100EC0000E94460761E070E080E090E00E946105CA
:100ED000F9CF629FD001739FF001829FE00DF11D59
:100EE000649FE00DF11D929FF00D839FF00D749FA4
:100EF000F00D659FF00D9927729FB00DE11DF91F50
:100F0000639FB00DE11DF91FBD01CF0111240895AC
:100F1000A1E21A2EAA1BBB1BFD010DC0AA1FBB1FFD
:100F2000EE1FFF1FA217B307E407F50720F0A21B6F
:100F3000B30BE40BF50B661F771F881F991F1A94DC
:100F400069F760957095809590959B01AC01BD0106
:100F5000CF01089597FB092E05260ED057FD04D02A
:100F6000D7DF0AD0001C38F4509540953095219574
:100F70003F4F4F4F5F4F0895F6F7909580957095CE
:0E0F800061957F4F8F4F9F4F0895F894FFCFDC
:00000001FF
